:020000040000FA
:10000000020405E59154045391FB7595F8759430FD
:100010007593F0759260439104429122E4F5BF53C9
:09002000D9BF75D90243D8402272
:07002B0002049475A90322F1
:1000330002037485BF1512001C12062E12063B1212
:10004300064812068F12067B1206851206961206C2
:10005300621206A412002E12061E12000312006D75
:0E00630012065512069D8515BF2275890522CD
:1000730002060EBB010689828A83E0225002E72230
:10008300BBFE02E32289828A83E49322BB010CE54F
:100093008229F582E5833AF583E0225006E9258239
:1000A300F8E622BBFE06E92582F8E222E58229F57D
:1000B30082E5833AF583E49322EF8DF0A4A8F0CF91
:1000C3008CF0A428CE8DF0A42EFE22BC000BBE0023
:1000D30029EF8DF084FFADF022E4CCF875F008EF42
:1000E3002FFFEE33FEEC33FCEE9DEC984005FCEE67
:1000F3009DFE0FD5F0E9E4CEFD22EDF8F5F0EE8498
:1001030020D21CFEADF075F008EF2FFFED33FD405C
:1001130007985006D5F0F222C398FD0FD5F0EA22D6
:1001230075F008758200EF2FFFEE33FECD33CDCC93
:1001330033CCC58233C5829BED9AEC99E582984016
:100143000CF582EE9BFEED9AFDEC99FC0FD5F0D6F3
:10015300E4CEFBE4CDFAE4CCF9A88222B800C1B91D
:100163000059BA002DEC8BF084CFCECDFCE5F0CB5B
:10017300F97818EF2FFFEE33FEED33FDEC33FCEB94
:1001830033FB10D703994004EB99FB0FD8E5E4F94F
:10019300FA227818EF2FFFEE33FEED33FDEC33FC3C
:1001A300C933C910D7059BE99A4007EC9BFCE99A30
:1001B300F90FD8E0E4C9FAE4CCFB2275F010EF2F75
:1001C300FFEE33FEED33FDCC33CCC833C810D70775
:1001D3009BEC9AE899400AED9BFDEC9AFCE899F8B0
:1001E3000FD5F0DAE4CDFBE4CCFAE4C8F922EB9FB7
:1001F300F5F0EA9E42F0E99D42F0E89C45F022E8E2
:10020300600FECC313FCED13FDEE13FEEF13FFD8E9
:10021300F122EC8EF0A4CCC5F0CCCDF8EFA4CEC582
:10022300F02DFDE43CFCE8A42EC8C5F03DFDE43C04
:10023300FCEFA4FFE5F028FEE43DFDE43CFC2212C4
:10024300003643E24043DAC2D2AFE4F523F524FF9C
:10025300FE1204F5E5217006D284C2858004C284AF
:10026300D285852114208203E4F5142083037514B9
:1002730001E51465216025E4FFFE1204F57FF47E99
:10028300011205C0851421E5217006D284C2858040
:1002930004C284D285AF24AE231204F512066F7C08
:1002A3000C7DE4120215E47BFF7A03F9F812015F77
:1002B3008F128E118D108C0FE4F5137F6C7E07FD6A
:1002C300FCAB12AA11A910A80FC31201F14013E449
:1002D3007F347E08FDFCA80F1201F1500575130150
:1002E3008026E47F607E09FDFCAB12AA11A910A849
:1002F3000FC31201F14011E47F5A7E0AFDFCA80FDF
:100303001201F15003751302AF137E00EF7004F571
:10031300228054E5227050EF64024E701CD3E52412
:10032300945FE5239400500974052524F524E480A3
:10033300217523007524648024E5136401701EC3B2
:10034300E5249405E5239400400E74FB2524F5244D
:1003530074FF3523F5238005E4F523F524AF24AE9C
:10036300231204F57522017F147E001205C00202D8
:1003730065C0E0C0F0C083C082C0D075D000C000AB
:10038300C001C002C003C004C005C006C007E5F831
:1003930054F0FFF4440F52F8EF30E74BE519602FA8
:1003A300300113851D82851C83E5A3F0051DE51D22
:1003B3007007051C800385A30E1519E519700D3010
:1003C3000305300002D2FA1205E9800385191BE503
:1003D3001A601430F911300209A81EE2F5A3051EB4
:1003E300800375A300151AD007D006D005D004D01A
:1003F30003D002D001D000D0D0D082D083D0F0D0AF
:10040300E0321206A8787FE4F6D8FD75812A02044B
:100413004F020242E493A3F8E493A34003F680015E
:10042300F208DFF48029E493A3F85407240CC8C32B
:1004330033C4540F4420C8834004F456800146F665
:10044300DFE4800B010204081020408090058DE456
:100453007E019360BCA3FF543F30E509541FFEE4C3
:1004630093A360010ECF54C025E060A840B8E49385
:10047300A3FAE493A3F8E493A3C8C582C8CAC583C7
:10048300CAF0A3C8C582C8CAC583CADFE9DEE7804C
:10049300BEC0E0C0F0C083C082C0D075D000C00031
:1004A300C001C002C003C004C005C006C00753C8D2
:1004B3007F53C8FBAF27EF640170117527027F00DC
:1004C30085280C7B02FDFC120548800BAF27EF64E7
:1004D300037004C281F527D007D006D005D004D01D
:1004E30003D002D001D000D0D0D082D083D0F0D0BE
:1004F300E032D3EF9464EE940040047E007F64EF17
:100503004E700C7518FF7517FFF516F5158020C38F
:1005130074649FFFE49EFE7CFF7DFF120215E47B63
:1005230064FAF9F812015F8F188E178D168C15E592
:1005330018FFE48FFBAF18AE17AD16AC1578081291
:1005430002028FFC22850C19850C1A850C1B8F1E49
:100553008C1C8D1DEB139201EBA2E192022004038C
:100563001205FD85A30D53F80F300305300002C2B9
:10057300FA30F915E51A6011300209A81EE2F5A355
:10058300051E8003E4F5A3151A22022500000127A6
:100593000001280002290000C100C103C104C101F8
:1005A300C102011900011A00011B00011E00021CF7
:1005B30000000121000223000001220000E4FDFCF1
:1005C300C3ED9FEC9E501EE4F515F5160516E516D2
:1005D30070020515E516B4A0F3E515B40FEE0DBDD5
:1005E30000010C80DB22752703AFBFE4F5BF75CD97
:1005F300FF75CCFC43C8048FBF22E5A1A2E692039A
:10060300E5F8540C24FF9200D20422C0E053917FFA
:10061300052AE52A70020529D0E032AF885388AF56
:10062300EF5440FEEF54104E428822E5D854404226
:10063300D875DA80E4F5FC22E5D8544042D875DB5E
:1006430042E4F5EA22E5D8544042D875DC42E4F5A9
:10065300EC2275A21743A14053F8F343F801227526
:10066300BC3875BA1F75BB0443E88022D2EC30ED69
:10067300FDC2EDAFBDAEBE2275A51175F2DD75D518
:10068300FE2275A64075F3DF75D6BF2275A4737578
:10069300D43F2275E24175E1022275E68075A862B6
:0906A3002275D1082253D9BF22AF
:00000001FF
