:020000040000FA
:1000000002105BEFB40A07740D12000E740A3098E8
:1000100011A899B8130CC2983098FDA899C298B845
:0A00200011F63099FDC299F59922FE
:07002B000210EA75A903228F
:10003300020FCA85BF5B1213BD12138912139612E6
:1000430013A31213E81213D41213EF1213F612139D
:100053006B12006D1213FD12002E12135B12130D9F
:0E0063001213B0121404855BBF2275D108225F
:1000730002134BEC4D6011E8497017ED33EC330478
:10008300600DE4FCFFFEFD22E933E8330470F8025F
:1000930003081202D358046009E4CC2481500628D3
:1000A300500902031228400302030FC0E0EB4A7019
:1000B30044B98006D0E0FB0202FEEF4E701CBD8007
:1000C30008EBFFEAFEE9FD80EBE98DF0A4FEE5F025
:1000D30002015FE9CDF9EAFEEBFFEF89F0A4FCE54D
:1000E300F0CE89F0A42EFFE435F0CD89F0A42DFEE7
:1000F300E435F08067EF4E7005BD80D780C3EF8B8A
:10010300F0A4ACF0EE8BF0A42CFCE435F0F8EF8A0D
:10011300F0A42CE5F038FCE433CB8DF0A42CFCE503
:10012300F03BF8EE8AF0A42CFCE5F038F8E433CF8A
:1001330089F0A42CFCE5F038CF3400CE89F0A42F4D
:10014300FFE5F03EFEE433C98DF0A42EFEE5F03961
:10015300CD8AF0A42FFFE5F03EFEE43DFD33D0E071
:10016300FB50070BBB000F020312EC2CFCEF33FF19
:10017300EE33FEED33FD0202EA020312EC5D04608E
:1001830005E8590470030203081202D3580460F609
:10019300EC4860F2EC7004FDFEFF22C860DB2481B2
:1001A300C85009C3986002500602030F9850CAF55D
:1001B30082E9294B4A7005AB820202FE75F0007C8E
:1001C3001A7880C3EF9BEE9AED99400DC3EF9BFF26
:1001D300EE9AFEED99FDE842F0DC23ACF0D0E0FFAF
:1001E300D0E0FED0E0FDAB8220E7101BEB60BAEC61
:1001F3002CFCEF33FFEE33FEED33FD0202EAE8039E
:10020300F830E705C0F075F000EF2FFFEE33FEED99
:1002130033FD40B830E7C280AA74F8CC6480CCC800
:100223006480C8F58204604FC3EB9FF5F0EA9E42F9
:10023300F0E99D42F0E89C45F0603C501DE5825F8B
:10024300FFE582D313CB5BCBF42B5582FB50280AFB
:10025300BA002409B9002008801DE5825BFBE58212
:10026300D313CF5FCFF4C3132F5582FF50090EBEB4
:1002730000050DBD00010CC3EB9FF5F0EA9E42F0B3
:10028300E99D42F0E89C45F06007CC4820E701B3C4
:10029300EC2275F020800E75F010800575F0087D56
:1002A300007E007F003392D530D503120676EC33FF
:1002B3004010EF33FFEE33FEED33FDEC33FCD5F0AE
:1002C300ED22E5F0247EA2D513CC92E7CDCEFF221A
:1002D300E9D2E7C933E833F892D5EDD2E7CD33EC71
:1002E30033FC5002B2D522EC30E7100FBF000C0EE6
:1002F300BE00080DBD00040BEB6014A2D5EB13FC8C
:10030300ED92E7FD2274FFFCFDFEFF22E480F8A2DC
:10031300D574FF13FC7D80E480EFF920E72824F9EE
:1003230050037907E4F42402FB18DBFDE624FB50B9
:1003330014E9600DE4F618E604F6B40A08E4F6D905
:10034300F57401F60A22C2D522ED33EC3392D5FAC5
:10035300602AB4FF33EDC2E77BFF60067A0379714D
:10036300E4227A03797A20D5047A037975224E61DF
:100373004E002B494E46002D494E4600E47A08F6BE
:1003830008DAFC7B00740722E8C0E0ECC0E0EDC0B3
:10039300E0EEC0E0EFC0E0EA75F010A4CAABF07580
:1003A300F04DA42BFBE435F0FCEA2410FAEB34C542
:1003B300FBEC34D9FCEDC2E7FF75F056A4F424112D
:1003C300C5F0F434C58FF0A42AE5F03BE43CF620F5
:1003D300E714120577D0E0FFD0E0FED0E0FDD0E0D7
:1003E300FC12017F8014F404120577D0E0FFD0E003
:1003F300FED0E0FDD0E0FC120076D0E0F8E6FAEDA6
:10040300D2E7CD33EC332482FBE4C3CF33CFCE33F7
:10041300CECD33CD33DBF37B0775F00A846004F66E
:10042300081B0AE5F0F6088FF0740AA4FFACF08EFF
:10043300F0740AA42CFEACF050010C8DF0740AA4E5
:100443002CFDE435F0F608DBDE740722020308E82E
:100453006480F8E933E83360110460F0ED33EC3382
:100463007009E8FCE9FDEAFEEBFF220460DED3EB52
:100473009FEA9EE99DE8C2E78CF0C2F795F0400C35
:10048300E8CCF8E9CDF9EACEFAEBCFFB1202D3853B
:10049300D0F05804700320D5B3E80470075002B2BB
:1004A300D502031292D5EC0460F7E4CCC0E0C39804
:1004B300F8603B94186008400DD0E0FB0202EAE4C8
:1004C300FBFAC9FC8028E830E406E4C9FBE4CAFC73
:1004D300E830E305E4C9CACBFCE854076010F8C36D
:1004E300E913F9EA13FAEB13FBEC13FCD8F130F53B
:1004F3002FC3E49CFCEF9BFFEE9AFEED99FDD0E049
:10050300FBEF4E4D4C701222DB0302030FEC2CFC6D
:10051300EF33FFEE33FEED33FDED30E7EB0202EA9E
:10052300EF2BFFEE3AFEED39FDD0E0FB50130BBB92
:100533000003020312ED13FDEE13FEEF13FFEC13A2
:10054300FC0202EA3F8000004120000042C8000094
:10055300447A0000461C400047C3500049742400FD
:100563004B1896804CBEBC205A0E1BCA6753C21C44
:10057300749DC5AEFB60065407601C23231205A5BA
:10058300EB543860091205911205A0120076ECF8BD
:10059300EDF9EEFAEFCB22EB1205A080F15438030C
:1005A300241C900547FE93FC0EEE93FD0EEE930E76
:1005B300CE93FF22BB010689828A83E0225002E7A1
:1005C30022BBFE02E32289828A83E49322BB010CCD
:1005D300E58229F582E5833AF583E0225006E92591
:1005E30082F8E622BBFE06E92582F8E222E58229AB
:1005F300F582E5833AF583E49322BB010689828A77
:1006030083F0225002F722BBFE01F322EF8DF0A408
:10061300A8F0CF8CF0A428CE8DF0A42EFE22BC002F
:100623000BBE0029EF8DF084FFADF022E4CCF8750A
:10063300F008EF2FFFEE33FEEC33FCEE9DEC984019
:1006430005FCEE9DFE0FD5F0E9E4CEFD22EDF8F5B5
:10065300F0EE8420D21CFEADF075F008EF2FFFED15
:1006630033FD4007985006D5F0F222C398FD0FD50D
:10067300F0EA22C3E49FFFE49EFEE49DFDE49CFCBC
:1006830022EB9FF5F0EA9E42F0E99D42F0EC648094
:10069300C864809845F022EB9FF5F0EA9E42F0E9AA
:1006A3009D42F0E89C45F022FAE6FB0808E6F925AE
:1006B300F0F618E6CA3AF622D083D082F8E49370B3
:1006C30012740193700DA3A393F8740193F58288B8
:1006D30083E4737402936860EFA3A3A380DFE70945
:1006E300F60870FA8046E709F20870FA803E8882BD
:1006F3008C83E709F0A370FA807EE309F60870FAA9
:100703008076E309F20870FA806E88828C83E309AD
:10071300F0A370FA806289828A83E0A3F60870FAF4
:10072300805689828A83E0A3F20870FA804A80D2D5
:1007330080FA80C680D4806580F28031801080A6E4
:1007430080EA809A80A880DA80E280CA8031898238
:100753008A83ECFAE493A3C8C582C8CCC583CCF0E2
:10076300A3C8C582C8CCC583CC70E9800D89828AB1
:1007730083E493A3F60870F9ECFAA9F0EDFB228960
:10078300828A83ECFAE0A3C8C582C8CCC583CCF0C7
:10079300A3C8C582C8CCC583CC70EA80DD89828AB0
:1007A30083E493A3F20870F980CE88F0ED2402B4B9
:1007B300040050C4F582EB2402B4040050BA23238E
:1007C30045822390073173E572245EF8E6057222B1
:1007D300785B300702785EE475F0011206AB020520
:1007E300B72000EB7F2ED2008018EF540F2490D453
:1007F3003440D4FF30040BEF24BFB41A0050032459
:1008030061FFE573600215730576E5767002057581
:1008130030070D785BE475F0011206ABEF0205FDBE
:100823000200037403D2078003E4C207F5728B5BF3
:100833008A5C895DE4F573F575F576E57360077F8A
:100843002012080580F57574FFC201C200C202C2FE
:1008530003C205C206C2081207D3FF700D30070595
:100863007F00120816AF76AE7522B4255FC2D5C2DB
:10087300041207D3FF24D0B40A00501A75F00A7883
:100883007330D50508B6FF0106C6A426F620D504A5
:100893007002D20380D924CFB41A00EF5004C2E50A
:1008A300D204020B03D20180C6D20080C0D20280E0
:1008B300BCD2D580BAD20580B47F201208052002AD
:1008C300077401B5730040F11207CAFF120805024D
:1008D300083ED208D20680951207CAFB1207CAFA4D
:1008E3001207CAF94A4B700679FA7A0B7BFF20028A
:1008F3002EE573602A7E008E827583001205D06018
:10090300060EEE657470F0C2D5EBC0E0EAC0E0E914
:10091300C0E0EE120B63D0E0F9D0E0FAD0E0FB12B6
:1009230005B7FF60AAEBC0E0EAC0E0E9C0E0120847
:1009330005D0E02401F9D0E03400FAD0E0FBE574FF
:100943000460DCD574D98087D20280A2120B466082
:10095300F7E57470010412031DA974600DE574605A
:100963000914F574120BEDEF60F3EA30E702F404B7
:10097300C3995077EAF425740430E701E404F5746D
:10098300800D120B4660C1EA0574257412031DEA3B
:100993007871F630E701E4257404D5740420050169
:1009A30014120B63E4C0E0120BED7871E6601320C0
:1009B300E70714F61207ED802204F6D0E014C0E036
:1009C3007F001207EDE57460071207E41574800BCE
:1009D3003005031207E4D0E002083ED0E00480C5EE
:1009E300120B4660A0E5740412031D7871EAF6E564
:1009F300742005026001042404120B6374FF04C015
:100A0300E0120BED1207EDE57420050260031207F7
:100A1300E4D0E0B574E87F451207F77871E67F2BE1
:100A230030E7047F2DF404C0E0120805D0E075F030
:100A33000A84C0F01207EED0E01207EE02083E79F6
:100A43001080027908C206C2088008D2D5790A80CC
:100A530004790AC2D5E574047002F574E4FAFDFE64
:100A6300FF1207CAFC7B082001131207CAFD7B1083
:100A730030000A1207CAFE1207CAFF7B20EC33823A
:100A8300D592D55013C3E43000069FFFE49EFEE4E5
:100A93002001039DFDE49CFCE4CBF8C201EC700C47
:100AA300CFCECDCCE824F8F870F38017C3EF33FF33
:100AB300EE33FEED33FDEC33FCEB33FB994002FBED
:100AC3000FD8E9EB300105F8D0E0C448B201C0E02B
:100AD3000AEC4D4E4F78207B0070C2EAB57400409B
:100AE300BCC0E0120B65D0F0D0E0200104C4C0E02C
:100AF300C4B201C0F01207EED0F0D5F0EB02083E0D
:100B03001206BB08DB530A425808AC4C08A8420A39
:100B1300464F0A4E440A4E4908C1430A54550985B3
:100B23004609E345094F470C1A5008B02D08B42E67
:100B330008D72B08B82308D5200C032A08704800CF
:100B43000008CFE574B4FF037574061207CAFC12DC
:100B530007CAFD1207CAFE1207CAFF786A02034CCE
:100B6300790AA2D5200314300509B910020404B987
:100B7300080104A2D5200602500104200268920253
:100B8300B573005034C0E07F203003197F30A202D8
:100B930072067205500F120BBCC202C206C205C216
:100BA300087F30800F300503E9C0E01208053005E7
:100BB30003D0E0F9D0E0B573CC3005177F30B9101E
:100BC3000C1208057F583004077F788003B90803A7
:100BD3001208053002057F2D0208057F202008F842
:100BE3007F2B2006F322920280CF7F00B4070050B0
:100BF30005246AF8E6FF22286E756C6C2900D20181
:100C03001207CA3001F8C201787330D50108F60221
:100C130008702D504349581207CA2403B4050040F5
:100C230001E4900C15931207F6743A1207F6D203F7
:100C3300757304020A42E4F529F52AF52EF52DF51C
:100C43002CF52B1200361213DE53E6FDD2AF12132E
:100C53007B1212F3E4F529F52A7F77AB2A755EFF41
:100C6300755F1775602F7D03120EF8AF2A7B007A2C
:100C730000797712114B052AE52A70020529C394DE
:100C830008E5296480948040D0C2EDD2ECE4F52ECF
:100C9300F52DF52CF52B20ED2EE4FAF9F8E52E24AD
:100CA30001F52EEA352DF52DE9352CF52CE8352BFC
:100CB300F52BE47F507EC3FDFCAB2EAA2DA92CA8F7
:100CC3002BD312068440CFE47F507EC3FDFCAB2EB2
:100CD300AA2DA92CA82BD31206844040E4F529F5AC
:100CE3002A7F77AB2A755EFF755F177560377D03C3
:100CF300120EF8E52A240AFF7B007A007977121195
:100D03004B052AE52A70020529C39408E529648066
:100D1300948040CD75E880C2ED020C8EADBDACBEB3
:100D2300E412029A7B007AC0797F784412017F7BB8
:100D3300337A33795378401200768F328E318D3087
:100D43008C2FC2EDE4F529F52A755EFF755F1775E3
:100D53006043853264853163853062852F617B0012
:100D63007A0079331208267F77AB2A755E00755FA8
:100D7300007560337D03120EF8E52A240AFF7B0019
:100D83007A00797712114B052AE52A70020529C3E7
:100D93009408E5296480948040AF78477C007D0007
:100DA3007BFF7A17794B1207AD7F0A7ED77D237CB1
:100DB3003DAB32AA31A930A82F12021C500F78473D
:100DC3007C007D007BFF7A177954020EB6E4FFFEA8
:100DD3007DC07C3FAB32AA31A930A82F12021C6020
:100DE3002640247F337E337DF37C3FAB32AA31A987
:100DF30030A82F12021C500F78477C007D007BFF28
:100E03007A17795B020EB67F337E337DF37C3FAB7B
:100E130032AA31A930A82F12021C602540237FB8C3
:100E23007E1E7D057C40AB32AA31A930A82F120269
:100E33001C500E78477C007D007BFF7A1779608019
:100E4300727F9A7E997D197C40AB32AA31A930A872
:100E53002F12021C602540237F667E667D267C4020
:100E6300AB32AA31A930A82F12021C500E78477C4E
:100E7300007D007BFF7A17796580387F527EB87DCD
:100E83002E7C40AB32AA31A930A82F12021C602657
:100E930040247F1F7E857D3B7C40AB32AA31A93045
:100EA300A82F12021C500F78477C007D007BFF7A2D
:100EB30017796B1207ADE4F529F52AC3E52A9408DF
:100EC300E529648094804003020C8E7F77AB2A75FA
:100ED3005E00755F007560477D03120EF8E52A24F6
:100EE30014FF7B007A00797712114B052AE52A70EB
:100EF300CA052980C68F5B8D5C8B5DAB5EAA5FA93B
:100F0300601205B77003020FC9F561FF3395E0FE68
:100F1300C3EF9420EE64809480400BD3EF947EEE75
:100F2300648094804003756120D3E55C9478748079
:100F330094804002807CAF61EF3395E0FE75F064EE
:100F4300E55DA42FF582E5F03EF583E58224EFF518
:100F530082E5833413F583E493F9E55C13131354A7
:100F63001F255BFDF8C000E6FA08E6FBE55C5407C5
:100F7300FC7EFFE4A804088005CEC313CE13D8F982
:100F8300F4FFEEF45AFEEB5FD000A60608F6A805C0
:100F9300C000E6FA08E6FBE9FEE4A804088005CEF3
:100FA300C313CE13D8F9FFEA4EFEEB4FD000A606CB
:100FB30008F674012560F560E4355FF55F74062576
:100FC3005CF55C020EFE22C0E0C0F0C083C082C0AC
:100FD300D075D000C000C001C002C003C004C0056A
:100FE300C006C007E5F854F0FFF4440F52F8EF30A1
:100FF300E74BE508602F300A13850C82850B83E5E8
:10100300A3F0050CE50C7007050B800385A32815D9
:1010130008E508700D300C05300902D2FA121326C8
:10102300800385080AE509601430F911300B09A81B
:101033000DE2F5A3050D800375A3001509D007D0B4
:1010430006D005D004D003D002D001D000D0D0D038
:1010530082D083D0F0D0E03212140B787FE4F6D83C
:10106300FD7581860210A5020C39E493A3F8E4937D
:10107300A34003F68001F208DFF48029E493A3F888
:101083005407240CC8C333C4540F4420C8834004FA
:10109300F456800146F6DFE4800B010204081020B9
:1010A300408090128CE47E019360BCA3FF543F30D8
:1010B300E509541FFEE493A360010ECF54C025E05D
:1010C30060A840B8E493A3FAE493A3F8E493A3C815
:1010D300C582C8CAC583CAF0A3C8C582C8CAC583A6
:1010E300CADFE9DEE780BEC0E0C0F0C083C082C0D3
:1010F300D075D000C000C001C002C003C004C00549
:10110300C006C00753C87F53C8FBAF10EF6401701C
:10111300117510027F008511267B02FDFC121196CA
:10112300800BAF10EF64037004C281F510D007D0B9
:1011330006D005D004D003D002D001D000D0D0D047
:1011430082D083D0F0D0E0328F5B8B5C8A5D895E86
:101153007F801212B58F5FE55B04FF1212608F6010
:10116300E4FFEFC39410748094805018AB5CAA5DC5
:10117300A95E8F827583001205D0FE74612FF8A6D5
:10118300060F80DEE4F571F572FB7A00795F7D145A
:1011930002121F85260885260985260A8F0D8C0BCA
:1011A3008D0CEB13920AEBA2E1920B200D031213A9
:1011B3003A85A32753F80F300C05300902C2FA30E1
:1011C300F915E5096011300B09A80DE2F5A3050D2A
:1011D3008003E4F5A31509228F5C8D5DE55D600551
:1011E300755DFF8003E4F55D7F801212B58F5EE5C8
:1011F3005C04FF1212608F5FE4FFEFC394107480EE
:101203009480500974602FF8A65D0F80EDE4F570AB
:10121300F571FB7A00795E7D1402121F8B738A7459
:101223008975AF10EF70FB7510018D11FFEFC39D32
:101233005018AB73AA74A9758F827583001205D0F9
:10124300FE74002FF8EEF20F80E3AFBFE4F5BF7535
:10125300CDFF75CCF4D28143C8048FBF22EF540F66
:10126300C454F0FEEF54F0C4540F4EFF543325E042
:1012730025E0FEEF54CC1313543F4EFF545525E0A5
:10128300FEEF54AAC3134EFF22020E00000110000A
:1012930001110002120000C109C10CC10DC10AC134
:1012A3000B010800010900010A00010D00020B00F7
:1012B30000008F731213C9C3EF950FFDEE950EFC5B
:1012C300D3ED94C8EC940040074373408E0E8F0F08
:1012D300AF7322AD07AC061213C9AB07AA061213EC
:1012E300C9C3EF9BFFEE9AFEC3EF9DEE9C40EF2236
:1012F300E4F55BC3E55B948074809480500BE4FD5C
:10130300AF5B1211DB055B80EA22E5915404539134
:10131300FB7595F87594307593F07592604391045D
:10132300429122751003AFBFE4F5BF75CDFF75CCB5
:10133300FC43C8048FBF22E5A1A2E6920CE5F85452
:101343000C24FF9209D20D22C0E053917F0513E5CF
:101353001370020512D0E032AF885388AFEF5440C8
:10136300FEEF54104E42882275BC3875BA1F75BB08
:101373000453E8F843E88122C281D2947F0A7E00B5
:101383001212D60212F3E5D8544042D875DA42E479
:10139300F5FC22E5D8544042D875DB42E4F5EA2255
:1013A300E5D8544042D875DC42E4F5EC2275A21727
:1013B30043A14053F8F343F80122E4F5BF53D9BFE7
:1013C300F5D943D8402253E67FAF13AE1243E680EC
:1013D3002275A51175F2DF75D53E2275D10875BC4E
:1013E3002075E8802275A44275D43F2275F3DF751A
:1013F300D6202275E24075E1022253B2FC43B202C9
:101403002275E68075A8602253D9BF220020505070
:1014130020C060601040000000000000702070F8E1
:1014230010F830F870700000080080707070F07071
:10143300E0F8F8708870388880888870F070F078E9
:10144300F88888888888F870007020004000800041
:1014530008003000802010806000000000000000C1
:101463004000000000000030206000000000000089
:101473000020505078C89020202020200000000039
:101483008860881030804008888860601000408839
:1014930008888888908080888820109080D88888E1
:1014A30088888880208888888888084000105000B1
:1014B30020008000080048788000008020000000A1
:1014C3000000000040000000000000402010400029
:1014D30000000000002050F88010A0404010A82019
:1014E300000000089820082050F080108888606071
:1014F30020F820080888888088808080882010A0B1
:1015030080A8C88888888880208888885088104068
:10151300801088001070B07068704088B0603090A0
:1015230020D0B070F068B070E08888888888F84070
:101533002010A80000000000002000507020400090
:10154300401070F800F80010A82010109008F02048
:1015530070780000400010106888F08088F0F0B8C0
:10156300F82010C080A8A888F088F070208888A888
:1015730020502040401000000008C8809888E08870
:10158300C82010A020A8C8888898C8804088888868
:10159300508810802008100000000000000000F8B0
:1015A3000840A8004010A82060000020C8202008A0
:1015B300F80888408808606020F82020A8F8888010
:1015C30088808088882010A08088988880A8A008B8
:1015D300208888A850204040201000000078888090
:1015E30088F84078882010C020A88888F078807018
:1015F300408888A8207820402010000000000000C8
:1016030000000050F098900020202020200060402F
:10161300882040881088884088106020100040008F
:10162300A88888889080808888209090808888887F
:1016330080909008208850A88820804010100000D7
:101643000088888888804008882090A0208888881F
:1016530080088008489850A8500840402010000097
:101663000000000000200050201868001040000017
:10167300400060807070F8701070704070600040BF
:10168300080080207088F070E0F8807088706088AF
:10169300F8888870806888F0207020508820F8705F
:1016A300087000FC0078F07078704070887060906B
:1016B30070888870800880F0306820508870F83017
:1016C3002060000000000000000000000000000097
:1016D3000000000000000000000000000000000007
:1016E30000000000000000000000000000000000F7
:1016F30000000000000000000000000000000000E7
:1017030000000000000000000000000000000000D6
:1017130000000000000000000000000000000000C6
:1017230000000000000000000000000047726F7519
:10173300702032004144432054494D454F555400D5
:10174300252E3366285629004E6F20507265737319
:101753000043656E74657200446F776E004C656676
:0B176300740052696768740055700044
:00000001FF
