:020000040000FA
:100000000202678F40120598C3EF950FFDEE950E23
:10001000FCD3ED94C8EC940040074340408E0E8F13
:100020000FAF402275A44275D43F220202F675A993
:100030000322220201D685BF28120067120564122E
:10004000057112057E1200241205A31205AD1205DA
:10005000B41205BB12002E1205461204F812058BCD
:100060001205C28528BF22E4F5BF53D9BFF5D94395
:10007000D84022020536BB010689828A83E02250DD
:1000800002E722BBFE02E32289828A83E49322BB39
:10009000010CE58229F582E5833AF583E0225006DA
:1000A000E92582F8E622BBFE06E92582F8E222E590
:1000B0008229F582E5833AF583E49322EF8DF0A45B
:1000C000A8F0CF8CF0A428CE8DF0A42EFE22BC0088
:1000D0000BBE0029EF8DF084FFADF022E4CCF87563
:1000E000F008EF2FFFEE33FEEC33FCEE9DEC984072
:1000F00005FCEE9DFE0FD5F0E9E4CEFD22EDF8F50E
:10010000F0EE8420D21CFEADF075F008EF2FFFED6D
:1001100033FD4007985006D5F0F222C398FD0FD565
:10012000F0EA22EB9FF5F0EA9E42F0E99D42F0E80A
:100130009C45F022120036D2AF1205561204DE782A
:100140004A76017B007A007943E4FF1203577B0073
:100150007A0079437F0E120357784A76037B007A40
:100160000079437F01120357784B76C07B007A00F9
:100170007943E4FF1203577B007A0079437F07122B
:100180000357784A76427B007A0079437F01120355
:10019000577B007A0079437F06120357784A76A985
:1001A0007B007A0079437F021203577B007A007943
:1001B000437F03120357784A76847B007A007943A1
:1001C0007F04120357784A76B97B007A0079437F1F
:1001D0000512035780FEC0E0C0F0C083C082C0D0CB
:1001E00075D000C000C001C002C003C004C005C07B
:1001F00006C007E5F854F0FFF4440F52F8EF30E77B
:100200004BE508602F300113850C82850B83E5A335
:10021000F0050CE50C7007050B800385A327150876
:10022000E508700D300305300002D2FA1205118086
:100230000385080AE509601430F911300209A80D98
:10024000E2F5A3050D800375A3001509D007D006BC
:10025000D005D004D003D002D001D000D0D0D082BD
:10026000D083D0F0D0E032120032787FE4F6D8FDAF
:100270007581520202B1020134E493A3F8E493A31E
:100280004003F68001F208DFF48029E493A3F854D8
:1002900007240CC8C333C4540F4420C8834004F45B
:1002A00056800146F6DFE4800B010204081020406E
:1002B00080900498E47E019360BCA3FF543F30E536
:1002C00009541FFEE493A360010ECF54C025E060E3
:1002D000A840B8E493A3FAE493A3F8E493A3C8C5B1
:1002E00082C8CAC583CAF0A3C8C582C8CAC583CAA2
:1002F000DFE9DEE780BEC0E0C0F0C083C082C0D0CE
:1003000075D000C000C001C002C003C004C005C059
:1003100006C00753C87F53C8FBAF10EF64017011CC
:100320007510027F008511257B02FDFC1203A2805F
:100330000BAF10EF64037004C281F510D007D00634
:10034000D005D004D003D002D001D000D0D0D082CC
:10035000D083D0F0D0E0328F288B298A2A892B7F56
:10036000801200038F2CE52804FF12046C8F2DE40B
:10037000FFEFC39410748094805018AB29AA2AA967
:100380002B8F8275830012008FFE742E2FF8A60625
:100390000F80DEE4F53EF53FFB7A00792C7D1402F8
:1003A000042B85250885250985250A8F0D8C0B8D45
:1003B0000CEB139201EBA2E192022004031205253B
:1003C00085A32653F80F300305300002C2FA30F936
:1003D00015E5096011300209A80DE2F5A3050D80AD
:1003E00003E4F5A31509228F298D2AE52A600575F6
:1003F0002AFF8003E4F52A7F801200038F2BE52972
:1004000004FF12046C8F2CE4FFEFC39410748094EB
:10041000805009742D2FF8A62A0F80EDE4F53DF5E4
:100420003EFB7A00792B7D1402042B8B408A418994
:1004300042AF10EF70FB7510018D11FFEFC39D509F
:1004400018AB40AA41A9428F8275830012008FFE2B
:1004500074002FF8EEF20F80E3AFBFE4F5BF75CD67
:10046000FF75CCF4D28143C8048FBF22EF540FC470
:1004700054F0FEEF54F0C4540F4EFF543325E025E2
:10048000E0FEEF54CC1313543F4EFF545525E0FECD
:10049000EF54AAC3134EFF22020E00000110000108
:1004A000110002120000C100C103C104C101C10258
:1004B000010800010900010A00010D00020B000003
:1004C00000AD07AC06120598AB07AA06120598C343
:1004D000EF9BFFEE9AFEC3EF9DEE9C40EF22E4F50A
:1004E00028C3E528948074809480500BE4FDAF28E5
:1004F0001203E7052880EA22E59154045391FB7525
:1005000095F87594307593F075926043910442911B
:1005100022751003AFBFE4F5BF75CDFF75CCFC436A
:10052000C8048FBF22E5A1A2E69203E5F8540C248B
:10053000FF9200D20422C0E053917F0513E51370AF
:10054000020512D0E032AF885388AFEF5440FEEF7F
:1005500054104E428822C281D2947F0A7E00120437
:10056000C10204DEE5D8544042D875DA42E4F5FC15
:1005700022E5D8544042D875DB42E4F5EA22E5D8BA
:10058000544042D875DC42E4F5EC2275A21743A131
:100590004053F8F343F8012253E67FAF13AE124302
:1005A000E6802275A51175F2DF75D53E2275F3DF61
:1005B00075D6202275E24075E1022253B2FC43B2A7
:0905C000022275E68075A8602294
:00000001FF
