:020000040000FA
:100000000201C5AD07AC06120020AB07AA0612001C
:1000100020C3EF9BFFEE9AFEC3EF9DEE9C40EF22C4
:1000200053E67FAF1CAE1B43E6802202025175E20D
:0200300041226B
:10003300020134750F801202F7D2AF75DA42C2841F
:10004300C285AF0F12040B20820BD284C2857F645A
:100053007E0012000320830BC284D2857F647E005E
:0E006300120003AF0F12040B80DD75A90322FB
:1000730002038CBB010689828A83E0225002E722B5
:10008300BBFE02E32289828A83E49322BB010CE54F
:100093008229F582E5833AF583E0225006E9258239
:1000A300F8E622BBFE06E92582F8E222E58229F57D
:1000B30082E5833AF583E49322EF8DF0A4A8F0CF91
:1000C3008CF0A428CE8DF0A42EFE22BC000BBE0023
:1000D30029EF8DF084FFADF022E4CCF875F008EF42
:1000E3002FFFEE33FEEC33FCEE9DEC984005FCEE67
:1000F3009DFE0FD5F0E9E4CEFD22EDF8F5F0EE8498
:1001030020D21CFEADF075F008EF2FFFED33FD405C
:1001130007985006D5F0F222C398FD0FD5F0EA22D6
:10012300EB9FF5F0EA9E42F0E99D42F0E89C45F032
:1001330022C0E0C0F0C083C082C0D075D000C00030
:10014300C001C002C003C004C005C006C007E5F873
:1001530054F0FFF4440F52F8EF30E74BE511602FF2
:10016300300113851582851483E5A3F00515E51584
:1001730070070514800385A30E1511E511700D306A
:100183000305300002D2FA1203678003851113E5D9
:1001930012601430F911300209A816E2F5A305160E
:1001A300800375A3001512D007D006D005D004D064
:1001B30003D002D001D000D0D0D082D083D0F0D0F1
:1001C300E032787FE4F6D8FD75812002020C02004C
:1001D30036E493A3F8E493A34003F68001F208DF27
:1001E300F48029E493A3F85407240CC8C333C454FC
:1001F3000F4420C8834004F456800146F6DFE480B0
:100203000B0102040810204080900325E47E019333
:1002130060BCA3FF543F30E509541FFEE493A36081
:10022300010ECF54C025E060A840B8E493A3FAE4DC
:1002330093A3F8E493A3C8C582C8CAC583CAF0A32D
:10024300C8C582C8CAC583CADFE9DEE780BEC0E08D
:10025300C0F0C083C082C0D075D000C000C001C050
:1002630002C003C004C005C006C00753C87F53C8FB
:10027300FBAF19EF640170117519027F00851A0C29
:100283007B02FDFC1202B2800BAF19EF6403700412
:10029300C281F519D007D006D005D004D003D0020F
:1002A300D001D000D0D0D082D083D0F0D0E032853E
:1002B3000C11850C12850C138F168C148D15EB13F2
:1002C3009201EBA2E1920220040312037B85A30DAA
:1002D30053F80F300305300002C2FA30F915E51266
:1002E3006011300209A816E2F5A305168003E4F5B0
:1002F300A315122285BF101203E01203AC1203B937
:100303001203C61203F61203EC1203FD12002E129F
:10031300040412006D12039C12034E1203D38510C2
:10032300BF2202170000011900011A00021B00007E
:10033300C100C103C104C101C102011100011200C6
:100343000113000116000214000000E59154045348
:1003530091FB7595F87594307593F07592604391A0
:1003630004429122751903AFBFE4F5BF75CDFF7544
:10037300CCFC43C8048FBF22E5A1A2E69203E5F8B3
:10038300540C24FF9200D20422C0E053917F051C39
:10039300E51C7002051BD0E032AF885388AFEF54E1
:1003A30040FEEF54104E428822E5D8544042D8759F
:1003B300DA80E4F5FC22E5D8544042D875DB42E408
:1003C300F5EA22E5D8544042D875DC42E4F5EC2244
:1003D30075A21743A14053F8F343F80122E4F5BF94
:1003E30053D9BFF5D943D8402275A51175F2DF75EE
:1003F300D53E2275A40275D43D2275F3DF75D62050
:0B0403002253B2FC43B202228FFC2205
:00000001FF
