:020000040000FA
:100000000203B5E59154045391FB7595F87594304E
:100010007593F0759260439104429122E5D8544063
:0900200042D875DA42E4F5FC2235
:07002B0002044475A9032241
:1000330002032485BF1112060212001C1205DB12F3
:1000430005E812060E12061812006A12062212059D
:10005300F512063412002E1205CB120003120630DD
:0E0063001206298511BF2275F3DF75D66022C3
:100073000205BBBB010689828A83E0225002E72284
:10008300BBFE02E32289828A83E49322BB010CE54F
:100093008229F582E5833AF583E0225006E9258239
:1000A300F8E622BBFE06E92582F8E222E58229F57D
:1000B30082E5833AF583E49322EF8DF0A4A8F0CF91
:1000C3008CF0A428CE8DF0A42EFE22BC000BBE0023
:1000D30029EF8DF084FFADF022E4CCF875F008EF42
:1000E3002FFFEE33FEEC33FCEE9DEC984005FCEE67
:1000F3009DFE0FD5F0E9E4CEFD22EDF8F5F0EE8498
:1001030020D21CFEADF075F008EF2FFFED33FD405C
:1001130007985006D5F0F222C398FD0FD5F0EA22D6
:1001230075F008758200EF2FFFEE33FECD33CDCC93
:1001330033CCC58233C5829BED9AEC99E582984016
:100143000CF582EE9BFEED9AFDEC99FC0FD5F0D6F3
:10015300E4CEFBE4CDFAE4CCF9A88222B800C1B91D
:100163000059BA002DEC8BF084CFCECDFCE5F0CB5B
:10017300F97818EF2FFFEE33FEED33FDEC33FCEB94
:1001830033FB10D703994004EB99FB0FD8E5E4F94F
:10019300FA227818EF2FFFEE33FEED33FDEC33FC3C
:1001A300C933C910D7059BE99A4007EC9BFCE99A30
:1001B300F90FD8E0E4C9FAE4CCFB2275F010EF2F75
:1001C300FFEE33FEED33FDCC33CCC833C810D70775
:1001D3009BEC9AE899400AED9BFDEC9AFCE899F8B0
:1001E3000FD5F0DAE4CDFBE4CCFAE4C8F922EB9FB7
:1001F300F5F0EA9E42F0E99D42F0E89C45F022E8E2
:10020300600FECC313FCED13FDEE13FEEF13FFD8E9
:10021300F122EC8EF0A4CCC5F0CCCDF8EFA4CEC582
:10022300F02DFDE43CFCE8A42EC8C5F03DFDE43C04
:10023300FCEFA4FFE5F028FEE43DFDE43CFC227561
:100243000F0175100112003643E24043DAC2D2AF08
:10025300E4F51CF51DF51BFFFE1204A5C284C2853F
:10026300208251E50F6401704BE51B7020D3E51D1F
:10027300945FE51C9400500D7405251DF51DE435B0
:100283001CF51C8021751C00751D648019E4FFFE9C
:100293001204A57F2C7E0112056DE4F51BD284C2E6
:1002A30085F51C751D05AF1DAE1C1204A57F327E9E
:1002B3000012056DA282E433F50F208354E5106428
:1002C30001704EE51B64017020D3E51D945FE51CAE
:1002D3009400500D7405251DF51DE4351CF51C8097
:1002E30022751C00751D64801AE4FFFE1204A57FAD
:1002F3002C7E0112056D751B01C284D285751C000D
:10030300751D05AF1DAE1C1204A57F327E001205BC
:100313006DA283E433F5107F0A7E0012056D02029D
:1003230063C0E0C0F0C083C082C0D075D000C000FD
:10033300C001C002C003C004C005C006C007E5F881
:1003430054F0FFF4440F52F8EF30E74BE515602FFC
:10035300300113851982851883E5A3F00519E51982
:1003630070070518800385A30E1515E515700D306C
:100373000305300002D2FA1205968003851517E5AE
:1003830016601430F911300209A81AE2F5A3051A10
:10039300800375A3001516D007D006D005D004D06E
:1003A30003D002D001D000D0D0D082D083D0F0D0FF
:1003B300E032120638787FE4F6D8FD758124020313
:1003C300FF020242E493A3F8E493A34003F68001FF
:1003D300F208DFF48029E493A3F85407240CC8C37C
:1003E30033C4540F4420C8834004F456800146F6B6
:1003F300DFE4800B010204081020408090053DE4F7
:100403007E019360BCA3FF543F30E509541FFEE413
:1004130093A360010ECF54C025E060A840B8E493D5
:10042300A3FAE493A3F8E493A3C8C582C8CAC58317
:10043300CAF0A3C8C582C8CAC583CADFE9DEE7809C
:10044300BEC0E0C0F0C083C082C0D075D000C00081
:10045300C001C002C003C004C005C006C00753C822
:100463007F53C8FBAF21EF640170117521027F0038
:1004730085220C7B02FDFC1204F8800BAF21EF6494
:10048300037004C281F521D007D006D005D004D073
:1004930003D002D001D000D0D0D082D083D0F0D00E
:1004A300E032D3EF9464EE940040047E007F64EF67
:1004B3004E700C7514FF7513FFF512F5118020C3F0
:1004C30074649FFFE49EFE7CFF7DFF120215E47BB4
:1004D30064FAF9F812015F8F148E138D128C11E5F3
:1004E30014FFE48FFBAF14AE13AD12AC11780812F6
:1004F30002028FFC22850C15850C16850C178F1AAA
:100503008C188D19EB139201EBA2E19202200403E4
:100513001205AA85A30D53F80F300305300002C25C
:10052300FA30F915E5166011300209A81AE2F5A3AD
:10053300051A8003E4F5A3151622021E000001210B
:100543000001220002230000C100C103C104C10154
:10055300C102011500011600011700011A0002185B
:100563000000011B00021C000000E4FDFCC3ED9F22
:10057300EC9E501EE4F511F5120512E5127002050A
:1005830011E512B4A0F3E511B40FEE0DBD00010C9B
:1005930080DB22752103AFBFE4F5BF75CDFF75CCBA
:1005A300FC43C8048FBF22E5A1A2E69203E5F854F9
:1005B3000C24FF9200D20422C0E053917F0524E56E
:1005C3002470020523D0E032AF885388AFEF544044
:1005D300FEEF54104E428822E5D8544042D875DBD2
:1005E30042E4F5EA22E5D8544042D875DC42E4F50A
:1005F300EC2275BC3875BA1F75BB0D43E88022E445
:10060300F5BF53D9BFF5D943D8402275A4F175F18D
:10061300FD75D4BF2275A51175F2DF75D52D227531
:10062300E24175E1022275E68075A86222758905AB
:090633002275D1082253D9BF221F
:00000001FF
