:020000040000FA
:100000000201C5AD07AC06120020AB07AA0612001C
:1000100020C3EF9BFFEE9AFEC3EF9DEE9C40EF22C4
:1000200053E67FAF1CAE1B43E6802202025175E20D
:0200300041226B
:1000330002013485BF101203F51200641203CE12BD
:1000430003DB12040B12040112041212002E120419
:10005300191204201203BE1203701203E88510BFA5
:0E00630022E5D8544042D875DA80E4F5FC223C
:100073000203AEBB010689828A83E0225002E72293
:10008300BBFE02E32289828A83E49322BB010CE54F
:100093008229F582E5833AF583E0225006E9258239
:1000A300F8E622BBFE06E92582F8E222E58229F57D
:1000B30082E5833AF583E49322EF8DF0A4A8F0CF91
:1000C3008CF0A428CE8DF0A42EFE22BC000BBE0023
:1000D30029EF8DF084FFADF022E4CCF875F008EF42
:1000E3002FFFEE33FEEC33FCEE9DEC984005FCEE67
:1000F3009DFE0FD5F0E9E4CEFD22EDF8F5F0EE8498
:1001030020D21CFEADF075F008EF2FFFED33FD405C
:1001130007985006D5F0F222C398FD0FD5F0EA22D6
:10012300EB9FF5F0EA9E42F0E99D42F0E89C45F032
:1001330022C0E0C0F0C083C082C0D075D000C00030
:10014300C001C002C003C004C005C006C007E5F873
:1001530054F0FFF4440F52F8EF30E74BE511602FF2
:10016300300113851582851483E5A3F00515E51584
:1001730070070514800385A30E1511E511700D306A
:100183000305300002D2FA1203898003851113E5B7
:1001930012601430F911300209A816E2F5A305160E
:1001A300800375A3001512D007D006D005D004D064
:1001B30003D002D001D000D0D0D082D083D0F0D0F1
:1001C300E032787FE4F6D8FD75812002020C02024A
:1001D300B2E493A3F8E493A34003F68001F208DFAB
:1001E300F48029E493A3F85407240CC8C333C454FC
:1001F3000F4420C8834004F456800146F6DFE480B0
:100203000B0102040810204080900347E47E019311
:1002130060BCA3FF543F30E509541FFEE493A36081
:10022300010ECF54C025E060A840B8E493A3FAE4DC
:1002330093A3F8E493A3C8C582C8CAC583CAF0A32D
:10024300C8C582C8CAC583CADFE9DEE780BEC0E08D
:10025300C0F0C083C082C0D075D000C000C001C050
:1002630002C003C004C005C006C00753C87F53C8FB
:10027300FBAF19EF640170117519027F00851A0C29
:100283007B02FDFC120302800BAF19EF64037004C1
:10029300C281F519D007D006D005D004D003D0020F
:1002A300D001D000D0D0D082D083D0F0D0E032754E
:1002B3000F64120036D2AF75DAC6AF0F12042420D2
:1002C300821CD3E50F941474809480400A74F6253D
:1002D3000FF50FFF1204247FFA7E00120003208320
:1002E300DEC3E50F94F074809480500A740A250FDE
:1002F300F50FFF1204247FFA7E0012000380C085ED
:100303000C11850C12850C138F168C148D15EB13A1
:100313009201EBA2E1920220040312039D85A30D37
:1003230053F80F300305300002C2FA30F915E51215
:100333006011300209A816E2F5A305168003E4F55F
:10034300A315122202170000011900011A00021B53
:100353000000C100C103C104C101C10201110001B8
:1003630012000113000116000214000000E591546D
:10037300045391FB7595F87594307593F0759260FD
:10038300439104429122751903AFBFE4F5BF75CDC4
:10039300FF75CCFC43C8048FBF22E5A1A2E69203FC
:1003A300E5F8540C24FF9200D20422C0E053917F5D
:1003B300051CE51C7002051BD0E032AF885388AFE3
:1003C300EF5440FEEF54104E428822E5D854404289
:1003D300D875DB42E4F5EA22E5D8544042D875DC0F
:1003E30042E4F5EC2275A21743A14053F8F343F816
:1003F3000122E4F5BF53D9BFF5D943D8402275A5EF
:100403001175F2DF75D53E2275A40275D43D2275B0
:10041300F3DF75D6202253B2FC43B2022275A9033F
:04042300228FFC2206
:00000001FF
