:020000040000FA
:100000000202978F46120660C3EF950FFDEE950E24
:10001000FCD3ED94C8EC940040074346408E0E8F0D
:100020000FAF462275A44275D43F2202032675A95C
:100030000322220202061204F7D2AF1206121205A0
:100040009A7BFF7A0979B1E4FDFF12038B7A097973
:10005000C17F091203877A0979CA7F0A1203877B55
:0E006000FF7A0979D8E4FD7F0B12038B80FE36
:100073000205F28F2E8D2F8B30AB31AA32A93312AA
:1000830001487003020147F534FF3395E0FEC3EFE7
:100093009420EE64809480400BD3EF947EEE6480D2
:1000A30094804003753420D3E52F94787480948032
:1000B3004002807CAF34EF3395E0FE75F064E530A9
:1000C300A42FF582E5F03EF583E5822471F582E500
:1000D300833406F583E493F9E52F131313541F2593
:1000E3002EFDF8C000E6FA08E6FBE52F5407FC7E78
:1000F300FFE4A804088005CEC313CE13D8F9F4FF98
:10010300EEF45AFEEB5FD000A60608F6A805C00081
:10011300E6FA08E6FBE9FEE4A804088005CEC3136B
:10012300CE13D8F9FFEA4EFEEB4FD000A60608F631
:1001330074012533F533E43532F5327406252FF592
:100143002F02007C22BB010689828A83E0225002AF
:10015300E722BBFE02E32289828A83E49322BB0166
:100163000CE58229F582E5833AF583E0225006E91E
:100173002582F8E622BBFE06E92582F8E222E58223
:1001830029F582E5833AF583E49322EF8DF0A4A861
:10019300F0CF8CF0A428CE8DF0A42EFE22BC000B51
:1001A300BE0029EF8DF084FFADF022E4CCF875F0AA
:1001B30008EF2FFFEE33FEEC33FCEE9DEC98400589
:1001C300FCEE9DFE0FD5F0E9E4CEFD22EDF8F5F04F
:1001D300EE8420D21CFEADF075F008EF2FFFED3357
:1001E300FD4007985006D5F0F222C398FD0FD5F0D5
:1001F300EA22EB9FF5F0EA9E42F0E99D42F0E89C8B
:1002030045F022C0E0C0F0C083C082C0D075D000EA
:10021300C000C001C002C003C004C005C006C007BF
:10022300E5F854F0FFF4440F52F8EF30E74BE508DC
:10023300602F300113850C82850B83E5A3F0050C39
:10024300E50C7007050B800385A3271508E50870E7
:100253000D300305300002D2FA1205CD8003850864
:100263000AE509601430F911300209A80DE2F5A37B
:10027300050D800375A3001509D007D006D005D05E
:1002830004D003D002D001D000D0D0D082D083D00C
:10029300F0D0E032120032787FE4F6D8FD75815851
:1002A3000202E1020036E493A3F8E493A34003F6C9
:1002B3008001F208DFF48029E493A3F85407240CA7
:1002C300C8C333C4540F4420C8834004F456800188
:1002D30046F6DFE4800B01020408102040809005FD
:1002E30054E47E019360BCA3FF543F30E509541FDF
:1002F300FEE493A360010ECF54C025E060A840B88C
:10030300E493A3FAE493A3F8E493A3C8C582C8CA09
:10031300C583CAF0A3C8C582C8CAC583CADFE9DEDC
:10032300E780BEC0E0C0F0C083C082C0D075D000FB
:10033300C000C001C002C003C004C005C006C0079E
:1003430053C87F53C8FBAF10EF64017011751002DF
:100353007F008511257B02FDFC12042D800BAF105D
:10036300EF64037004C281F510D007D006D005D026
:1003730004D003D002D001D000D0D0D082D083D01B
:10038300F0D0E0327BFFE4FD8D288B298A2A892B6C
:10039300EF75F008A4F52DE4F52CC3E52C9408744F
:1003A3008094805039E4FFEFC3941074809480509C
:1003B3000974492FF8E4F60F80ED7F4985293185CB
:1003C3002A32852B33AB2CAD28120076E52D252C54
:1003D300FF7B007A0079491203E2052C80BC228F4F
:1003E3002E8B2F8A3089317F801200038F32E52EC6
:1003F30004FF1205288F33E4FFEFC3941074809435
:10040300805018AB2FAA30A9318F82758300120157
:1004130061FE74342FF8A6060F80DEE4F544F5453B
:10042300FB7A0079327D140204B6852508852509F7
:1004330085250A8F0D8C0B8D0CEB139201EBA2E13A
:1004430092022004031205E185A32653F80F30031B
:1004530005300002C2FA30F915E5096011300209CE
:10046300A80DE2F5A3050D8003E4F5A31509228F7A
:10047300298D2AE52A6005752AFF8003E4F52A7F82
:10048300801200038F2BE52904FF1205288F2CE42B
:10049300FFEFC39410748094805009742D2FF8A635
:1004A3002A0F80EDE4F53DF53EFB7A00792B7D14B0
:1004B3000204B68B468A478948AF10EF70FB75106C
:1004C300018D11FFEFC39D5018AB46AA47A9488F72
:1004D30082758300120161FE74002FF8EEF20F8023
:1004E300E3AFBFE4F5BF75CDFF75CCF4D28143C84C
:1004F300048FBF2285BF2812065412062012062D30
:1005030012063A12002412066B12067512067C12AA
:10051300068312002E1206021205B41206471206B3
:100523008A8528BF22EF540FC454F0FEEF54F0C461
:10053300540F4EFF543325E025E0FEEF54CC131344
:10054300543F4EFF545525E0FEEF54AAC3134EFF0C
:1005530022020E000001100001110002120000C16E
:1005630000C103C104C101C1020108000109000166
:100573000A00010D00020B000000AD07AC061206D5
:1005830060AB07AA06120660C3EF9BFFEE9AFEC399
:10059300EF9DEE9C40EF22E4F528C3E52894807498
:1005A300809480500BE4FDAF28120472052880EA82
:1005B30022E59154045391FB7595F8759430759326
:1005C300F0759260439104429122751003AFBFE42A
:1005D300F5BF75CDFF75CCFC43C8048FBF22E5A1E1
:1005E300A2E69203E5F8540C24FF9200D20422C041
:1005F300E053917F0513E51370020512D0E032AF8B
:10060300885388AFEF5440FEEF54104E428822C205
:1006130081D2947F0A7E0012057D02059AE5D854A3
:100623004042D875DA42E4F5FC22E5D8544042D87A
:1006330075DB42E4F5EA22E5D8544042D875DC4242
:10064300E4F5EC2275A21743A14053F8F343F801F4
:1006530022E4F5BF53D9BFF5D943D8402253E67FEF
:10066300AF13AE1243E6802275A51175F2DF75D57F
:100673003E2275F3DF75D6202275E24075E1022232
:1006830053B2FC43B2022275E68075A860220020B3
:10069300505020C060601040000000000000702037
:1006A30070F810F830F870700000080080707070F7
:1006B300F070E0F8F8708870388880888870F0707F
:1006C300F078F88888888888F870007020004000E7
:1006D30080000800300080201080600000000000CF
:1006E3000000400000000000003020600000000017
:1006F30000000020505078C89020202020200000C7
:10070300000088608810308040088888606010008E
:10071300408808888888908080888820109080D8B6
:10072300888888888880208888888888084000107E
:1007330050002000800008004878800000802000DE
:1007430000000000000040000000000000402010F6
:10075300400000000000002050F88010A04040102E
:10076300A820000000089820082050F080108888F6
:10077300606020F82008088888808880808088202E
:1007830010A080A8C8888888888020888888508896
:100793001040801088001070B07068704088B0609E
:1007A300309020D0B070F068B070E0888888888876
:1007B300F8402010A8000000000000200050702026
:1007C3004000401070F800F80010A82010109008A6
:1007D300F02070780000400010106888F08088F0E6
:1007E300F0B8F82010C080A8A888F088F07020889E
:1007F30088A820502040401000000008C880988836
:10080300E088C82010A020A8C8888898C88040889D
:100813008888508810802008100000000000000025
:1008230000F80840A8004010A82060000020C8205D
:100833002008F80888408808606020F82020A8F87D
:10084300888088808088882010A08088988880A8E5
:10085300A008208888A8502040402010000000787D
:10086300888088F84078882010C020A88888F0788D
:100873008070408888A82078204020100000000065
:10088300000000000050F09890002020202020005D
:1008930060408820408810888840881060201000BD
:1008A3004000A888888890808088882090908088DD
:1008B300888880909008208850A888208040101055
:1008C30000000088888888804008882090A02088BD
:1008D300888880088008489850A850084040201015
:1008E30000000000000000200050201868001040A5
:1008F3000000400060807070F8701070704070608D
:100903000040080080207088F070E0F880708870E4
:100913006088F8888870806888F02070205088206C
:10092300F870087000FC0078F07078704070887080
:10093300609070888870800880F0306820508870DC
:10094300F8302060000000000000000000000000FC
:100953000000000000000000000000000000000094
:100963000000000000000000000000000000000084
:100973000000000000000000000000000000000074
:100983000000000000000000000000000000000064
:100993000000000000000000000000000000000054
:1009A3000000000000000000000000000000536889
:1009B300656E6B617220434F4C4C4547450045645F
:1009C300656E20456C69004F6D6572204E616368EA
:1009D3006D616E69004572657A2077697468204598
:0109E3000013
:00000001FF
