:020000040000FA
:100000000201C5E59154045391FB7595F875943040
:100010007593F0759260439104429122E5D8544063
:0900200042D875DA80E4F5FC22F7
:07002B0002025475E24122BC
:1000330002013485BF0F12006712001C1203DC1289
:1000430003E912040A1203F612040012002E12042A
:100053002612041E1203CC120003120422120411EE
:10006300850FBF22E4F5BF53D9BFF5D943D840224A
:100073000203BCBB010689828A83E0225002E72285
:10008300BBFE02E32289828A83E49322BB010CE54F
:100093008229F582E5833AF583E0225006E9258239
:1000A300F8E622BBFE06E92582F8E222E58229F57D
:1000B30082E5833AF583E49322EF8DF0A4A8F0CF91
:1000C3008CF0A428CE8DF0A42EFE22BC000BBE0023
:1000D30029EF8DF084FFADF022E4CCF875F008EF42
:1000E3002FFFEE33FEEC33FCEE9DEC984005FCEE67
:1000F3009DFE0FD5F0E9E4CEFD22EDF8F5F0EE8498
:1001030020D21CFEADF075F008EF2FFFED33FD405C
:1001130007985006D5F0F222C398FD0FD5F0EA22D6
:10012300EB9FF5F0EA9E42F0E99D42F0E89C45F032
:1001330022C0E0C0F0C083C082C0D075D000C00030
:10014300C001C002C003C004C005C006C007E5F873
:1001530054F0FFF4440F52F8EF30E74BE511602FF2
:10016300300113851582851483E5A3F00515E51584
:1001730070070514800385A30E1511E511700D306A
:100183000305300002D2FA1203978003851113E5A9
:1001930012601430F911300209A816E2F5A305160E
:1001A300800375A3001512D007D006D005D004D064
:1001B30003D002D001D000D0D0D082D083D0F0D0F1
:1001C300E03212042A787FE4F6D8FD75812002021A
:1001D3000F0202B5E493A3F8E493A34003F680016E
:1001E300F208DFF48029E493A3F85407240CC8C36E
:1001F30033C4540F4420C8834004F456800146F6A8
:10020300DFE4800B0102040810204080900345E4E2
:100213007E019360BCA3FF543F30E509541FFEE405
:1002230093A360010ECF54C025E060A840B8E493C7
:10023300A3FAE493A3F8E493A3C8C582C8CAC58309
:10024300CAF0A3C8C582C8CAC583CADFE9DEE7808E
:10025300BEC0E0C0F0C083C082C0D075D000C00073
:10026300C001C002C003C004C005C006C00753C814
:100273007F53C8FBAF19EF640170117519027F003A
:10028300851A0C7B02FDFC120300800BAF19EF648F
:10029300037004C281F519D007D006D005D004D06D
:1002A30003D002D001D000D0D0D082D083D0F0D000
:1002B300E03212003643E24075DAC2D2AF7F907E5D
:1002C300E81204187FF47E0112036E208213208348
:1002D300107F907EE81204187F327E0012036E8036
:1002E300132082067FA07EF680072083077F807E0F
:1002F300DA1204187F147E0012036E80CE850C116F
:10030300850C12850C138F168C148D15EB1392012B
:10031300EBA2E192022004031203AB85A30D53F871
:100323000F300305300002C2FA30F915E5126011EF
:10033300300209A816E2F5A305168003E4F5A31518
:10034300122202170000011900011A00021B00000B
:10035300C100C103C104C101C102011100011200A6
:100363000113000116000214000000E4FDFCC3EDBC
:100373009FEC9E501EE4F50FF5100510E51070027A
:10038300050FE510B4A0F3E50FB40FEE0DBD0001AA
:100393000C80DB22751903AFBFE4F5BF75CDFF7584
:1003A300CCFC43C8048FBF22E5A1A2E69203E5F883
:1003B300540C24FF9200D20422C0E053917F051C09
:1003C300E51C7002051BD0E032AF885388AFEF54B1
:1003D30040FEEF54104E428822E5D8544042D8756F
:1003E300DB42E4F5EA22E5D8544042D875DC42E426
:1003F300F5EC2275A51175F2DF75D5FE2275A640C1
:1004030075F3DF75D6BF2275A47375D42F2275E6F5
:100413008075A86222EFF5FB8EFC2275A903227575
:0B04230089052275D1082253D9BF22A1
:00000001FF
