:020000040000FA
:0A00000002000E75DE08E4F5FE2292
:0F000B00020077787FE4F6D8FD75810802003D8A
:10001B0002007E85BF0812006012000312006912F5
:10002B00007012008512008912005612008D85088F
:10003B00BF2212001EC2A6C2A7758DFD758B12D2F0
:10004B00AFD2A9D2ABD28CD28E80FE758E047589BD
:10005B001243881022E4F5BF53D9BFF5D92275F2AC
:10006B00DF75D5202275A6C075D6C0225388DF63F5
:10007B00A0403253887F63A0803275E2402275A97D
:06008B00082275A88A227C
:00000001FF
