:020000040000FA
:100000000203B18F401206E2C3EF950FFDEE950E8D
:10001000FCD3ED94C8EC940040074340408E0E8F13
:100020000FAF402275A44275D43F2202044075A947
:1000300003222202032085BF281200671206AE1297
:1000400006BB1206C81200241206ED1206F71206AD
:10005000FE12070512002E1206901206421206D555
:1000600012070C8528BF22E4F5BF53D9BFF5D94349
:10007000D84022020680120036D2AF1206A0120625
:1000800028784A76017B007A007943E4FF1204A1C4
:10009000784B76C07B007A007943E4FF1204A178A4
:1000A0004A76037B007A0079437F011204A1784BE2
:1000B00076E07B007A0079437F011204A1784A76CA
:1000C000077B007A0079437F021204A1784B76F017
:1000D0007B007A0079437F021204A1784A76077B7D
:1000E000007A0079437F031204A1784B76F07B00FD
:1000F0007A0079437F031204A1784A76E57B007A7F
:100100000079437F041204A1784B76777B007A0054
:1001100079437F041204A1784A76757B007A0079CE
:10012000437F051204A1784B767E7B007A007943E9
:100130007F051204A1784A76357B007A0079437FE7
:10014000061204A1784B767C7B007A0079437F0607
:100150001204A1784A763F7B007A0079437F071228
:1001600004A1784B76FC7B007A0079437F07120468
:10017000A1784A761E7B007A0079437F081204A199
:10018000784B76F87B007A0079437F081204A178D7
:100190004A761E7B007A0079437F091204A1784BCE
:1001A00076F07B007A0079437F091204A1784A76C1
:1001B0000F7B007A0079437F0A1204A1784B76F016
:1001C0007B007A0079437F0A1204A1784A760F7B7C
:1001D000007A0079437F0B1204A1784B76F77B00FD
:1001E0007A0079437F0B1204A1784A76077B007A64
:1001F0000079437F0C1204A1784B76FE7B007A00D5
:1002000079437F0C1204A1784A76037B007A007947
:10021000437F0D1204A1784B76FE7B007A00794370
:100220007F0D1204A1784A76017B007A0079437F22
:100230000E1204A1784B76FC7B007A0079437F0E86
:100240001204A1E4784AF6FB7A0079437F0F120486
:10025000A1784B76707B007A0079437F0F1204A15E
:1002600080FEBB010689828A83E0225002E722BB1E
:10027000FE02E32289828A83E49322BB010CE58299
:1002800029F582E5833AF583E0225006E92582F8D4
:10029000E622BBFE06E92582F8E222E58229F58204
:1002A000E5833AF583E49322EF8DF0A4A8F0CF8C98
:1002B000F0A428CE8DF0A42EFE22BC000BBE002997
:1002C000EF8DF084FFADF022E4CCF875F008EF2F4D
:1002D000FFEE33FEEC33FCEE9DEC984005FCEE9D0A
:1002E000FE0FD5F0E9E4CEFD22EDF8F5F0EE842026
:1002F000D21CFEADF075F008EF2FFFED33FD400787
:10030000985006D5F0F222C398FD0FD5F0EA22EB03
:100310009FF5F0EA9E42F0E99D42F0E89C45F0220C
:10032000C0E0C0F0C083C082C0D075D000C000C0A3
:1003300001C002C003C004C005C006C007E5F854F0
:10034000F0FFF4440F52F8EF30E74BE508602F3030
:100350000113850C82850B83E5A3F0050CE50C7079
:1003600007050B800385A3271508E508700D3003EA
:1003700005300002D2FA12065B800385080AE509FF
:10038000601430F911300209A80DE2F5A3050D80C3
:100390000375A3001509D007D006D005D004D003FB
:1003A000D002D001D000D0D0D082D083D0F0D0E025
:1003B00032120032787FE4F6D8FD7581520203FBD9
:1003C000020076E493A3F8E493A34003F68001F2DD
:1003D00008DFF48029E493A3F85407240CC8C3333E
:1003E000C4540F4420C8834004F456800146F6DF0D
:1003F000E4800B01020408102040809005E2E47EB6
:10040000019360BCA3FF543F30E509541FFEE49301
:10041000A360010ECF54C025E060A840B8E493A3C8
:10042000FAE493A3F8E493A3C8C582C8CAC583CAF3
:10043000F0A3C8C582C8CAC583CADFE9DEE780BEAB
:10044000C0E0C0F0C083C082C0D075D000C000C082
:1004500001C002C003C004C005C006C00753C87F66
:1004600053C8FBAF10EF640170117510027F008557
:1004700011257B02FDFC1204EC800BAF10EF64032E
:100480007004C281F510D007D006D005D004D00387
:10049000D002D001D000D0D0D082D083D0F0D0E034
:1004A000328F288B298A2A892B7F801200038F2C78
:1004B000E52804FF1205B68F2DE4FFEFC3941074F6
:1004C0008094805018AB29AA2AA92B8F82758300AB
:1004D00012027BFE742E2FF8A6060F80DEE4F53E96
:1004E000F53FFB7A00792C7D14020575852508857A
:1004F000250985250A8F0D8C0B8D0CEB139201EBD2
:10050000A2E1920220040312066F85A32653F80F7E
:10051000300305300002C2FA30F915E509601130E8
:100520000209A80DE2F5A3050D8003E4F5A3150962
:10053000228F298D2AE52A6005752AFF8003E4F5BC
:100540002A7F801200038F2BE52904FF1205B68F46
:100550002CE4FFEFC39410748094805009742D2F05
:10056000F8A62A0F80EDE4F53DF53EFB7A00792BE5
:100570007D140205758B408A418942AF10EF70FBF4
:100580007510018D11FFEFC39D5018AB40AA41A912
:10059000428F8275830012027BFE74002FF8EEF208
:1005A0000F80E3AFBFE4F5BF75CDFF75CCF4D2810A
:1005B00043C8048FBF22EF540FC454F0FEEF54F031
:1005C000C4540F4EFF543325E025E0FEEF54CC1306
:1005D00013543F4EFF545525E0FEEF54AAC3134E6B
:1005E000FF22020E000001100001110002120000A3
:1005F000C100C103C104C101C10201080001090019
:10060000010A00010D00020B000000AD07AC06124C
:1006100006E2AB07AA061206E2C3EF9BFFEE9AFEC4
:10062000C3EF9DEE9C40EF22E4F528C3E5289480BB
:1006300074809480500BE4FDAF28120531052880AA
:10064000EA22E59154045391FB7595F87594307541
:1006500093F0759260439104429122751003AFBFED
:10066000E4F5BF75CDFF75CCFC43C8048FBF22E510
:10067000A1A2E69203E5F8540C24FF9200D20422D2
:10068000C0E053917F0513E51370020512D0E032EC
:10069000AF885388AFEF5440FEEF54104E4288228B
:1006A000C281D2947F0A7E0012060B020628E5D88A
:1006B000544042D875DA42E4F5FC22E5D854404271
:1006C000D875DB42E4F5EA22E5D8544042D875DC1F
:1006D00042E4F5EC2275A21743A14053F8F343F826
:1006E000012253E67FAF13AE1243E6802275A511B7
:1006F00075F2DF75D53E2275F3DF75D6202275E2DF
:100700004075E1022253B2FC43B2022275E68075C5
:03071000A86022BC
:00000001FF
